{
  "contractName": "HealthDataManagement",
  "abi": [
    {
      "anonymous": false,
      "inputs": [
        {
          "indexed": true,
          "internalType": "string",
          "name": "username",
          "type": "string"
        },
        {
          "indexed": false,
          "internalType": "string",
          "name": "dataHash",
          "type": "string"
        }
      ],
      "name": "HealthDataDeleted",
      "type": "event"
    },
    {
      "anonymous": false,
      "inputs": [
        {
          "indexed": true,
          "internalType": "string",
          "name": "username",
          "type": "string"
        },
        {
          "indexed": false,
          "internalType": "string",
          "name": "dataHash",
          "type": "string"
        },
        {
          "indexed": false,
          "internalType": "string",
          "name": "dataType",
          "type": "string"
        },
        {
          "indexed": false,
          "internalType": "uint256",
          "name": "timestamp",
          "type": "uint256"
        }
      ],
      "name": "HealthDataUploaded",
      "type": "event"
    },
    {
      "anonymous": false,
      "inputs": [
        {
          "indexed": true,
          "internalType": "string",
          "name": "grantorUsername",
          "type": "string"
        },
        {
          "indexed": true,
          "internalType": "address",
          "name": "granteeAddress",
          "type": "address"
        },
        {
          "indexed": false,
          "internalType": "string",
          "name": "dataHash",
          "type": "string"
        },
        {
          "indexed": false,
          "internalType": "uint256",
          "name": "expirationTime",
          "type": "uint256"
        }
      ],
      "name": "SharePermissionSet",
      "type": "event"
    },
    {
      "anonymous": false,
      "inputs": [
        {
          "indexed": true,
          "internalType": "string",
          "name": "username",
          "type": "string"
        },
        {
          "indexed": false,
          "internalType": "string",
          "name": "hashedPassword",
          "type": "string"
        },
        {
          "indexed": true,
          "internalType": "address",
          "name": "userAddress",
          "type": "address"
        },
        {
          "indexed": false,
          "internalType": "string",
          "name": "publicKey",
          "type": "string"
        }
      ],
      "name": "UserRegistered",
      "type": "event"
    },
    {
      "inputs": [
        {
          "internalType": "string",
          "name": "",
          "type": "string"
        },
        {
          "internalType": "uint256",
          "name": "",
          "type": "uint256"
        }
      ],
      "name": "healthDataSharePermissions",
      "outputs": [
        {
          "internalType": "address",
          "name": "granteeAddress",
          "type": "address"
        },
        {
          "internalType": "string",
          "name": "grantorUsername",
          "type": "string"
        },
        {
          "internalType": "uint256",
          "name": "expirationTime",
          "type": "uint256"
        }
      ],
      "stateMutability": "view",
      "type": "function",
      "constant": true
    },
    {
      "inputs": [
        {
          "internalType": "string",
          "name": "",
          "type": "string"
        },
        {
          "internalType": "uint256",
          "name": "",
          "type": "uint256"
        }
      ],
      "name": "userHealthData",
      "outputs": [
        {
          "internalType": "string",
          "name": "dataHash",
          "type": "string"
        },
        {
          "internalType": "string",
          "name": "dataType",
          "type": "string"
        },
        {
          "internalType": "uint256",
          "name": "timestamp",
          "type": "uint256"
        },
        {
          "internalType": "string",
          "name": "dataOwner",
          "type": "string"
        },
        {
          "internalType": "string",
          "name": "dataContent",
          "type": "string"
        },
        {
          "internalType": "string",
          "name": "fileName",
          "type": "string"
        }
      ],
      "stateMutability": "view",
      "type": "function",
      "constant": true
    },
    {
      "inputs": [
        {
          "internalType": "string",
          "name": "",
          "type": "string"
        },
        {
          "internalType": "uint256",
          "name": "",
          "type": "uint256"
        }
      ],
      "name": "userSharePermissions",
      "outputs": [
        {
          "internalType": "address",
          "name": "granteeAddress",
          "type": "address"
        },
        {
          "internalType": "string",
          "name": "grantorUsername",
          "type": "string"
        },
        {
          "internalType": "uint256",
          "name": "expirationTime",
          "type": "uint256"
        }
      ],
      "stateMutability": "view",
      "type": "function",
      "constant": true
    },
    {
      "inputs": [
        {
          "internalType": "string",
          "name": "",
          "type": "string"
        }
      ],
      "name": "users",
      "outputs": [
        {
          "internalType": "string",
          "name": "username",
          "type": "string"
        },
        {
          "internalType": "string",
          "name": "hashedPassword",
          "type": "string"
        },
        {
          "internalType": "address",
          "name": "userAddress",
          "type": "address"
        },
        {
          "internalType": "string",
          "name": "publicKey",
          "type": "string"
        }
      ],
      "stateMutability": "view",
      "type": "function",
      "constant": true
    },
    {
      "inputs": [
        {
          "internalType": "string",
          "name": "_username",
          "type": "string"
        },
        {
          "internalType": "string",
          "name": "_hashedPassword",
          "type": "string"
        },
        {
          "internalType": "string",
          "name": "_publicKey",
          "type": "string"
        }
      ],
      "name": "registerUser",
      "outputs": [],
      "stateMutability": "nonpayable",
      "type": "function"
    },
    {
      "inputs": [],
      "name": "getAllUsernames",
      "outputs": [
        {
          "internalType": "string[]",
          "name": "",
          "type": "string[]"
        }
      ],
      "stateMutability": "view",
      "type": "function",
      "constant": true
    },
    {
      "inputs": [
        {
          "internalType": "string",
          "name": "_username",
          "type": "string"
        },
        {
          "internalType": "string",
          "name": "_dataHash",
          "type": "string"
        },
        {
          "internalType": "string",
          "name": "_dataType",
          "type": "string"
        },
        {
          "internalType": "string",
          "name": "_dataContent",
          "type": "string"
        },
        {
          "internalType": "string",
          "name": "_fileName",
          "type": "string"
        }
      ],
      "name": "uploadHealthData",
      "outputs": [],
      "stateMutability": "nonpayable",
      "type": "function"
    },
    {
      "inputs": [
        {
          "internalType": "string",
          "name": "_username",
          "type": "string"
        }
      ],
      "name": "viewHealthData",
      "outputs": [
        {
          "components": [
            {
              "internalType": "string",
              "name": "dataHash",
              "type": "string"
            },
            {
              "internalType": "string",
              "name": "dataType",
              "type": "string"
            },
            {
              "internalType": "uint256",
              "name": "timestamp",
              "type": "uint256"
            },
            {
              "internalType": "string",
              "name": "dataOwner",
              "type": "string"
            },
            {
              "internalType": "string",
              "name": "dataContent",
              "type": "string"
            },
            {
              "internalType": "string",
              "name": "fileName",
              "type": "string"
            }
          ],
          "internalType": "struct HealthDataManagement.HealthData[]",
          "name": "",
          "type": "tuple[]"
        }
      ],
      "stateMutability": "view",
      "type": "function",
      "constant": true
    },
    {
      "inputs": [
        {
          "internalType": "string",
          "name": "_dataHash",
          "type": "string"
        }
      ],
      "name": "getHealthDataContent",
      "outputs": [
        {
          "internalType": "string",
          "name": "",
          "type": "string"
        }
      ],
      "stateMutability": "view",
      "type": "function",
      "constant": true
    },
    {
      "inputs": [
        {
          "internalType": "string",
          "name": "_dataHash",
          "type": "string"
        }
      ],
      "name": "getFileName",
      "outputs": [
        {
          "internalType": "string",
          "name": "",
          "type": "string"
        }
      ],
      "stateMutability": "view",
      "type": "function",
      "constant": true
    },
    {
      "inputs": [
        {
          "internalType": "string",
          "name": "_grantorUsername",
          "type": "string"
        },
        {
          "internalType": "address",
          "name": "_granteeAddress",
          "type": "address"
        },
        {
          "internalType": "string",
          "name": "_dataHash",
          "type": "string"
        },
        {
          "internalType": "uint256",
          "name": "_expirationTime",
          "type": "uint256"
        }
      ],
      "name": "setSharePermission",
      "outputs": [],
      "stateMutability": "nonpayable",
      "type": "function"
    },
    {
      "inputs": [
        {
          "internalType": "address",
          "name": "_viewerAddress",
          "type": "address"
        },
        {
          "internalType": "string",
          "name": "_dataHash",
          "type": "string"
        }
      ],
      "name": "hasPermissionViewTo",
      "outputs": [
        {
          "internalType": "bool",
          "name": "",
          "type": "bool"
        }
      ],
      "stateMutability": "view",
      "type": "function",
      "constant": true
    },
    {
      "inputs": [
        {
          "internalType": "string",
          "name": "_username",
          "type": "string"
        },
        {
          "internalType": "string",
          "name": "_dataHash",
          "type": "string"
        }
      ],
      "name": "deleteHealthData",
      "outputs": [],
      "stateMutability": "nonpayable",
      "type": "function"
    }
  ],
  "bytecode": "0x6080604052600060045534801561001557600080fd5b5061387e806100256000396000f3fe608060405234801561001057600080fd5b50600436106100cf5760003560e01c8063689e1c031161008c578063b037931f11610066578063b037931f14610251578063c710c40814610286578063d637dcfa146102a2578063ef525007146102be576100cf565b8063689e1c03146101bc5780638c5660db146101ef5780638ec6faf61461021f576100cf565b80632b0c69aa146100d4578063386a424f1461010657806345fe5ae214610136578063536203751461015257806353ed1f5014610170578063679d4b301461018c575b600080fd5b6100ee60048036038101906100e99190612c68565b6102ee565b6040516100fd93929190613209565b60405180910390f35b610120600480360381019061011b91906129a2565b6103f3565b60405161012d91906132a6565b60405180910390f35b610150600480360381019061014b9190612a76565b6106c3565b005b61015a610aeb565b6040516101679190613247565b60405180910390f35b61018a600480360381019061018591906129e3565b610c6f565b005b6101a660048036038101906101a191906129a2565b610fbc565b6040516101b39190613269565b60405180910390f35b6101d660048036038101906101d191906129a2565b6116fe565b6040516101e694939291906132ff565b60405180910390f35b610209600480360381019061020491906129a2565b6118fc565b60405161021691906132a6565b60405180910390f35b61023960048036038101906102349190612c68565b611bcc565b60405161024893929190613209565b60405180910390f35b61026b60048036038101906102669190612c68565b611cd1565b60405161027d9695949392919061339e565b60405180910390f35b6102a0600480360381019061029b9190612b79565b611fe8565b005b6102bc60048036038101906102b79190612ae2565b612220565b005b6102d860048036038101906102d3919061294e565b612432565b6040516102e5919061328b565b60405180910390f35b600282805160208101820180518482526020830160208501208183528095505050505050818154811061032057600080fd5b9060005260206000209060030201600091509150508060000160009054906101000a900473ffffffffffffffffffffffffffffffffffffffff169080600101805461036a906136d0565b80601f0160208091040260200160405190810160405280929190818152602001828054610396906136d0565b80156103e35780601f106103b8576101008083540402835291602001916103e3565b820191906000526020600020905b8154815290600101906020018083116103c657829003601f168201915b5050505050908060020154905083565b606060005b6004548110156106aa576000600560008381526020019081526020016000208054610422906136d0565b80601f016020809104026020016040519081016040528092919081815260200182805461044e906136d0565b801561049b5780601f106104705761010080835404028352916020019161049b565b820191906000526020600020905b81548152906001019060200180831161047e57829003601f168201915b5050505050905060005b6001826040516104b591906131db565b90815260200160405180910390208054905081101561069557846040516020016104df91906131db565b6040516020818303038152906040528051906020012060018360405161050591906131db565b9081526020016040518091039020828154811061054b577f4e487b7100000000000000000000000000000000000000000000000000000000600052603260045260246000fd5b906000526020600020906006020160000160405160200161056c91906131f2565b6040516020818303038152906040528051906020012014156106825760018260405161059891906131db565b908152602001604051809103902081815481106105de577f4e487b7100000000000000000000000000000000000000000000000000000000600052603260045260246000fd5b906000526020600020906006020160050180546105fa906136d0565b80601f0160208091040260200160405190810160405280929190818152602001828054610626906136d0565b80156106735780601f1061064857610100808354040283529160200191610673565b820191906000526020600020905b81548152906001019060200180831161065657829003601f168201915b505050505093505050506106be565b808061068d90613702565b9150506104a5565b505080806106a290613702565b9150506103f8565b506040518060200160405280600081525090505b919050565b336040516020016106d491906131c0565b604051602081830303815290604052805190602001206000836040516106fa91906131db565b908152602001604051809103902060020160009054906101000a900473ffffffffffffffffffffffffffffffffffffffff1660405160200161073c91906131c0565b6040516020818303038152906040528051906020012014610792576040517f08c379a000000000000000000000000000000000000000000000000000000000815260040161078990613472565b60405180910390fd5b60006001836040516107a491906131db565b9081526020016040518091039020905060005b8180549050811015610ae457826040516020016107d491906131db565b60405160208183030381529060405280519060200120828281548110610823577f4e487b7100000000000000000000000000000000000000000000000000000000600052603260045260246000fd5b906000526020600020906006020160000160405160200161084491906131f2565b604051602081830303815290604052805190602001201415610ad15781600183805490506108729190613612565b815481106108a9577f4e487b7100000000000000000000000000000000000000000000000000000000600052603260045260246000fd5b90600052602060002090600602018282815481106108f0577f4e487b7100000000000000000000000000000000000000000000000000000000600052603260045260246000fd5b90600052602060002090600602016000820181600001908054610912906136d0565b61091d92919061269c565b506001820181600101908054610932906136d0565b61093d92919061269c565b5060028201548160020155600382018160030190805461095c906136d0565b61096792919061269c565b50600482018160040190805461097c906136d0565b61098792919061269c565b50600582018160050190805461099c906136d0565b6109a792919061269c565b50905050818054806109e2577f4e487b7100000000000000000000000000000000000000000000000000000000600052603160045260246000fd5b600190038181906000526020600020906006020160008082016000610a079190612729565b600182016000610a179190612729565b6002820160009055600382016000610a2f9190612729565b600482016000610a3f9190612729565b600582016000610a4f9190612729565b50509055600383604051610a6391906131db565b90815260200160405180910390206000610a7d9190612769565b83604051610a8b91906131db565b60405180910390207f778720aeebbfe704fa78df7b1f0e3fc96b375bff7773d38a9b2e450cb5f118ad84604051610ac291906132a6565b60405180910390a25050610ae7565b8080610adc90613702565b9150506107b7565b50505b5050565b6060600060045467ffffffffffffffff811115610b31577f4e487b7100000000000000000000000000000000000000000000000000000000600052604160045260246000fd5b604051908082528060200260200182016040528015610b6457816020015b6060815260200190600190039081610b4f5790505b50905060005b600454811015610c6757600560008281526020019081526020016000208054610b92906136d0565b80601f0160208091040260200160405190810160405280929190818152602001828054610bbe906136d0565b8015610c0b5780601f10610be057610100808354040283529160200191610c0b565b820191906000526020600020905b815481529060010190602001808311610bee57829003601f168201915b5050505050828281518110610c49577f4e487b7100000000000000000000000000000000000000000000000000000000600052603260045260246000fd5b60200260200101819052508080610c5f90613702565b915050610b6a565b508091505090565b33604051602001610c8091906131c0565b60405160208183030381529060405280519060200120600085604051610ca691906131db565b908152602001604051809103902060020160009054906101000a900473ffffffffffffffffffffffffffffffffffffffff16604051602001610ce891906131c0565b6040516020818303038152906040528051906020012014610d3e576040517f08c379a0000000000000000000000000000000000000000000000000000000008152600401610d3590613492565b60405180910390fd5b428111610d80576040517f08c379a0000000000000000000000000000000000000000000000000000000008152600401610d7790613452565b60405180910390fd5b600284604051610d9091906131db565b908152602001604051809103902060405180606001604052808573ffffffffffffffffffffffffffffffffffffffff16815260200186815260200183815250908060018154018082558091505060019003906000526020600020906003020160009091909190915060008201518160000160006101000a81548173ffffffffffffffffffffffffffffffffffffffff021916908373ffffffffffffffffffffffffffffffffffffffff1602179055506020820151816001019080519060200190610e5b92919061278d565b50604082015181600201555050600382604051610e7891906131db565b908152602001604051809103902060405180606001604052808573ffffffffffffffffffffffffffffffffffffffff16815260200186815260200183815250908060018154018082558091505060019003906000526020600020906003020160009091909190915060008201518160000160006101000a81548173ffffffffffffffffffffffffffffffffffffffff021916908373ffffffffffffffffffffffffffffffffffffffff1602179055506020820151816001019080519060200190610f4392919061278d565b506040820151816002015550508273ffffffffffffffffffffffffffffffffffffffff1684604051610f7591906131db565b60405180910390207f10a10d78487989c6d8cb7449ce190be0d5c7adc5e737a83ccc0836acd80e9a298484604051610fae929190613422565b60405180910390a350505050565b606060003390506000600184604051610fd591906131db565b908152602001604051809103902090506000805b828054905081101561116e5760008660405161100591906131db565b908152602001604051809103902060000160405160200161102691906131f2565b604051602081830303815290604052805190602001208660405160200161104d91906131db565b6040516020818303038152906040528051906020012014806111475750611146848483815481106110a7577f4e487b7100000000000000000000000000000000000000000000000000000000600052603260045260246000fd5b906000526020600020906006020160000180546110c3906136d0565b80601f01602080910402602001604051908101604052809291908181526020018280546110ef906136d0565b801561113c5780601f106111115761010080835404028352916020019161113c565b820191906000526020600020905b81548152906001019060200180831161111f57829003601f168201915b5050505050612432565b5b1561115b57818061115790613702565b9250505b808061116690613702565b915050610fe9565b5060008167ffffffffffffffff8111156111b1577f4e487b7100000000000000000000000000000000000000000000000000000000600052604160045260246000fd5b6040519080825280602002602001820160405280156111ea57816020015b6111d7612813565b8152602001906001900390816111cf5790505b5090506000805b84805490508110156116f05760008860405161120d91906131db565b908152602001604051809103902060000160405160200161122e91906131f2565b604051602081830303815290604052805190602001208860405160200161125591906131db565b60405160208183030381529060405280519060200120148061134f575061134e868683815481106112af577f4e487b7100000000000000000000000000000000000000000000000000000000600052603260045260246000fd5b906000526020600020906006020160000180546112cb906136d0565b80601f01602080910402602001604051908101604052809291908181526020018280546112f7906136d0565b80156113445780601f1061131957610100808354040283529160200191611344565b820191906000526020600020905b81548152906001019060200180831161132757829003601f168201915b5050505050612432565b5b156116dd5784818154811061138d577f4e487b7100000000000000000000000000000000000000000000000000000000600052603260045260246000fd5b90600052602060002090600602016040518060c00160405290816000820180546113b6906136d0565b80601f01602080910402602001604051908101604052809291908181526020018280546113e2906136d0565b801561142f5780601f106114045761010080835404028352916020019161142f565b820191906000526020600020905b81548152906001019060200180831161141257829003601f168201915b50505050508152602001600182018054611448906136d0565b80601f0160208091040260200160405190810160405280929190818152602001828054611474906136d0565b80156114c15780601f10611496576101008083540402835291602001916114c1565b820191906000526020600020905b8154815290600101906020018083116114a457829003601f168201915b50505050508152602001600282015481526020016003820180546114e4906136d0565b80601f0160208091040260200160405190810160405280929190818152602001828054611510906136d0565b801561155d5780601f106115325761010080835404028352916020019161155d565b820191906000526020600020905b81548152906001019060200180831161154057829003601f168201915b50505050508152602001600482018054611576906136d0565b80601f01602080910402602001604051908101604052809291908181526020018280546115a2906136d0565b80156115ef5780601f106115c4576101008083540402835291602001916115ef565b820191906000526020600020905b8154815290600101906020018083116115d257829003601f168201915b50505050508152602001600582018054611608906136d0565b80601f0160208091040260200160405190810160405280929190818152602001828054611634906136d0565b80156116815780601f1061165657610100808354040283529160200191611681565b820191906000526020600020905b81548152906001019060200180831161166457829003601f168201915b5050505050815250508383815181106116c3577f4e487b7100000000000000000000000000000000000000000000000000000000600052603260045260246000fd5b602002602001018190525081806116d990613702565b9250505b80806116e890613702565b9150506111f1565b508195505050505050919050565b600081805160208101820180518482526020830160208501208183528095505050505050600091509050806000018054611737906136d0565b80601f0160208091040260200160405190810160405280929190818152602001828054611763906136d0565b80156117b05780601f10611785576101008083540402835291602001916117b0565b820191906000526020600020905b81548152906001019060200180831161179357829003601f168201915b5050505050908060010180546117c5906136d0565b80601f01602080910402602001604051908101604052809291908181526020018280546117f1906136d0565b801561183e5780601f106118135761010080835404028352916020019161183e565b820191906000526020600020905b81548152906001019060200180831161182157829003601f168201915b5050505050908060020160009054906101000a900473ffffffffffffffffffffffffffffffffffffffff1690806003018054611879906136d0565b80601f01602080910402602001604051908101604052809291908181526020018280546118a5906136d0565b80156118f25780601f106118c7576101008083540402835291602001916118f2565b820191906000526020600020905b8154815290600101906020018083116118d557829003601f168201915b5050505050905084565b606060005b600454811015611bb357600060056000838152602001908152602001600020805461192b906136d0565b80601f0160208091040260200160405190810160405280929190818152602001828054611957906136d0565b80156119a45780601f10611979576101008083540402835291602001916119a4565b820191906000526020600020905b81548152906001019060200180831161198757829003601f168201915b5050505050905060005b6001826040516119be91906131db565b908152602001604051809103902080549050811015611b9e57846040516020016119e891906131db565b60405160208183030381529060405280519060200120600183604051611a0e91906131db565b90815260200160405180910390208281548110611a54577f4e487b7100000000000000000000000000000000000000000000000000000000600052603260045260246000fd5b9060005260206000209060060201600001604051602001611a7591906131f2565b604051602081830303815290604052805190602001201415611b8b57600182604051611aa191906131db565b90815260200160405180910390208181548110611ae7577f4e487b7100000000000000000000000000000000000000000000000000000000600052603260045260246000fd5b90600052602060002090600602016004018054611b03906136d0565b80601f0160208091040260200160405190810160405280929190818152602001828054611b2f906136d0565b8015611b7c5780601f10611b5157610100808354040283529160200191611b7c565b820191906000526020600020905b815481529060010190602001808311611b5f57829003601f168201915b50505050509350505050611bc7565b8080611b9690613702565b9150506119ae565b50508080611bab90613702565b915050611901565b506040518060200160405280600081525090505b919050565b6003828051602081018201805184825260208301602085012081835280955050505050508181548110611bfe57600080fd5b9060005260206000209060030201600091509150508060000160009054906101000a900473ffffffffffffffffffffffffffffffffffffffff1690806001018054611c48906136d0565b80601f0160208091040260200160405190810160405280929190818152602001828054611c74906136d0565b8015611cc15780601f10611c9657610100808354040283529160200191611cc1565b820191906000526020600020905b815481529060010190602001808311611ca457829003601f168201915b5050505050908060020154905083565b6001828051602081018201805184825260208301602085012081835280955050505050508181548110611d0357600080fd5b906000526020600020906006020160009150915050806000018054611d27906136d0565b80601f0160208091040260200160405190810160405280929190818152602001828054611d53906136d0565b8015611da05780601f10611d7557610100808354040283529160200191611da0565b820191906000526020600020905b815481529060010190602001808311611d8357829003601f168201915b505050505090806001018054611db5906136d0565b80601f0160208091040260200160405190810160405280929190818152602001828054611de1906136d0565b8015611e2e5780601f10611e0357610100808354040283529160200191611e2e565b820191906000526020600020905b815481529060010190602001808311611e1157829003601f168201915b505050505090806002015490806003018054611e49906136d0565b80601f0160208091040260200160405190810160405280929190818152602001828054611e75906136d0565b8015611ec25780601f10611e9757610100808354040283529160200191611ec2565b820191906000526020600020905b815481529060010190602001808311611ea557829003601f168201915b505050505090806004018054611ed7906136d0565b80601f0160208091040260200160405190810160405280929190818152602001828054611f03906136d0565b8015611f505780601f10611f2557610100808354040283529160200191611f50565b820191906000526020600020905b815481529060010190602001808311611f3357829003601f168201915b505050505090806005018054611f65906136d0565b80601f0160208091040260200160405190810160405280929190818152602001828054611f91906136d0565b8015611fde5780601f10611fb357610100808354040283529160200191611fde565b820191906000526020600020905b815481529060010190602001808311611fc157829003601f168201915b5050505050905086565b33604051602001611ff991906131c0565b6040516020818303038152906040528051906020012060008660405161201f91906131db565b908152602001604051809103902060020160009054906101000a900473ffffffffffffffffffffffffffffffffffffffff1660405160200161206191906131c0565b60405160208183030381529060405280519060200120146120b7576040517f08c379a00000000000000000000000000000000000000000000000000000000081526004016120ae906134d2565b60405180910390fd5b6001856040516120c791906131db565b90815260200160405180910390206040518060c00160405280868152602001858152602001428152602001878152602001848152602001838152509080600181540180825580915050600190039060005260206000209060060201600090919091909150600082015181600001908051906020019061214792919061278d565b50602082015181600101908051906020019061216492919061278d565b5060408201518160020155606082015181600301908051906020019061218b92919061278d565b5060808201518160040190805190602001906121a892919061278d565b5060a08201518160050190805190602001906121c592919061278d565b505050846040516121d691906131db565b60405180910390207f090c3b8bdbce012ed7943542929cafcbe039e80358907bc0c20d38f8b4b2b63d85854260405161221193929190613359565b60405180910390a25050505050565b6000808460405161223191906131db565b9081526020016040518091039020600001805461224d906136d0565b90501461228f576040517f08c379a0000000000000000000000000000000000000000000000000000000008152600401612286906134b2565b60405180910390fd5b60405180608001604052808481526020018381526020013373ffffffffffffffffffffffffffffffffffffffff168152602001828152506000846040516122d691906131db565b9081526020016040518091039020600082015181600001908051906020019061230092919061278d565b50602082015181600101908051906020019061231d92919061278d565b5060408201518160020160006101000a81548173ffffffffffffffffffffffffffffffffffffffff021916908373ffffffffffffffffffffffffffffffffffffffff160217905550606082015181600301908051906020019061238192919061278d565b509050508260056000600454815260200190815260200160002090805190602001906123ae92919061278d565b50600460008154809291906123c290613702565b91905055503373ffffffffffffffffffffffffffffffffffffffff16836040516123ec91906131db565b60405180910390207f971fe5b1712593136dbc2726d0767766c6cf9fbec7881b0da3827037e5dafcb384846040516124259291906132c8565b60405180910390a3505050565b60008060038360405161244591906131db565b9081526020016040518091039020805480602002602001604051908101604052809291908181526020016000905b8282101561259757838290600052602060002090600302016040518060600160405290816000820160009054906101000a900473ffffffffffffffffffffffffffffffffffffffff1673ffffffffffffffffffffffffffffffffffffffff1673ffffffffffffffffffffffffffffffffffffffff1681526020016001820180546124fc906136d0565b80601f0160208091040260200160405190810160405280929190818152602001828054612528906136d0565b80156125755780601f1061254a57610100808354040283529160200191612575565b820191906000526020600020905b81548152906001019060200180831161255857829003601f168201915b5050505050815260200160028201548152505081526020019060010190612473565b50505050905060005b815181101561268f578473ffffffffffffffffffffffffffffffffffffffff168282815181106125f9577f4e487b7100000000000000000000000000000000000000000000000000000000600052603260045260246000fd5b60200260200101516000015173ffffffffffffffffffffffffffffffffffffffff1614801561266c57504282828151811061265d577f4e487b7100000000000000000000000000000000000000000000000000000000600052603260045260246000fd5b60200260200101516040015110155b1561267c57600192505050612696565b808061268790613702565b9150506125a0565b5060009150505b92915050565b8280546126a8906136d0565b90600052602060002090601f0160209004810192826126ca5760008555612718565b82601f106126db5780548555612718565b8280016001018555821561271857600052602060002091601f016020900482015b828111156127175782548255916001019190600101906126fc565b5b5090506127259190612849565b5090565b508054612735906136d0565b6000825580601f106127475750612766565b601f0160209004906000526020600020908101906127659190612849565b5b50565b508054600082556003029060005260206000209081019061278a9190612866565b50565b828054612799906136d0565b90600052602060002090601f0160209004810192826127bb5760008555612802565b82601f106127d457805160ff1916838001178555612802565b82800160010185558215612802579182015b828111156128015782518255916020019190600101906127e6565b5b50905061280f9190612849565b5090565b6040518060c001604052806060815260200160608152602001600081526020016060815260200160608152602001606081525090565b5b8082111561286257600081600090555060010161284a565b5090565b5b808211156128b857600080820160006101000a81549073ffffffffffffffffffffffffffffffffffffffff02191690556001820160006128a79190612729565b600282016000905550600301612867565b5090565b60006128cf6128ca84613523565b6134f2565b9050828152602081018484840111156128e757600080fd5b6128f284828561368e565b509392505050565b6000813590506129098161381a565b92915050565b600082601f83011261292057600080fd5b81356129308482602086016128bc565b91505092915050565b60008135905061294881613831565b92915050565b6000806040838503121561296157600080fd5b600061296f858286016128fa565b925050602083013567ffffffffffffffff81111561298c57600080fd5b6129988582860161290f565b9150509250929050565b6000602082840312156129b457600080fd5b600082013567ffffffffffffffff8111156129ce57600080fd5b6129da8482850161290f565b91505092915050565b600080600080608085870312156129f957600080fd5b600085013567ffffffffffffffff811115612a1357600080fd5b612a1f8782880161290f565b9450506020612a30878288016128fa565b935050604085013567ffffffffffffffff811115612a4d57600080fd5b612a598782880161290f565b9250506060612a6a87828801612939565b91505092959194509250565b60008060408385031215612a8957600080fd5b600083013567ffffffffffffffff811115612aa357600080fd5b612aaf8582860161290f565b925050602083013567ffffffffffffffff811115612acc57600080fd5b612ad88582860161290f565b9150509250929050565b600080600060608486031215612af757600080fd5b600084013567ffffffffffffffff811115612b1157600080fd5b612b1d8682870161290f565b935050602084013567ffffffffffffffff811115612b3a57600080fd5b612b468682870161290f565b925050604084013567ffffffffffffffff811115612b6357600080fd5b612b6f8682870161290f565b9150509250925092565b600080600080600060a08688031215612b9157600080fd5b600086013567ffffffffffffffff811115612bab57600080fd5b612bb78882890161290f565b955050602086013567ffffffffffffffff811115612bd457600080fd5b612be08882890161290f565b945050604086013567ffffffffffffffff811115612bfd57600080fd5b612c098882890161290f565b935050606086013567ffffffffffffffff811115612c2657600080fd5b612c328882890161290f565b925050608086013567ffffffffffffffff811115612c4f57600080fd5b612c5b8882890161290f565b9150509295509295909350565b60008060408385031215612c7b57600080fd5b600083013567ffffffffffffffff811115612c9557600080fd5b612ca18582860161290f565b9250506020612cb285828601612939565b9150509250929050565b6000612cc88383612e03565b905092915050565b6000612cdc83836130fd565b905092915050565b612ced81613646565b82525050565b612d04612cff82613646565b61374b565b82525050565b6000612d1582613588565b612d1f81856135c3565b935083602082028501612d3185613553565b8060005b85811015612d6d5784840389528151612d4e8582612cbc565b9450612d59836135a9565b925060208a01995050600181019050612d35565b50829750879550505050505092915050565b6000612d8a82613593565b612d9481856135d4565b935083602082028501612da685613563565b8060005b85811015612de25784840389528151612dc38582612cd0565b9450612dce836135b6565b925060208a01995050600181019050612daa565b50829750879550505050505092915050565b612dfd81613658565b82525050565b6000612e0e8261359e565b612e1881856135e5565b9350612e2881856020860161369d565b612e31816137fc565b840191505092915050565b6000612e478261359e565b612e5181856135f6565b9350612e6181856020860161369d565b612e6a816137fc565b840191505092915050565b6000612e808261359e565b612e8a8185613607565b9350612e9a81856020860161369d565b80840191505092915050565b60008154612eb3816136d0565b612ebd8186613607565b94506001821660008114612ed85760018114612ee957612f1c565b60ff19831686528186019350612f1c565b612ef285613573565b60005b83811015612f1457815481890152600182019150602081019050612ef5565b838801955050505b50505092915050565b6000612f326025836135f6565b91507f45787069726174696f6e2074696d65206d75737420626520696e20746865206660008301527f75747572650000000000000000000000000000000000000000000000000000006020830152604082019050919050565b6000612f98602b836135f6565b91507f4e6f7420617574686f72697a656420746f2064656c657465206461746120666f60008301527f72207468697320757365720000000000000000000000000000000000000000006020830152604082019050919050565b6000612ffe602f836135f6565b91507f4e6f7420617574686f72697a656420746f20736574207065726d697373696f6e60008301527f7320666f722074686973207573657200000000000000000000000000000000006020830152604082019050919050565b60006130646017836135f6565b91507f557365726e616d6520616c7265616479206578697374730000000000000000006000830152602082019050919050565b60006130a4602b836135f6565b91507f4e6f7420617574686f72697a656420746f2075706c6f6164206461746120666f60008301527f72207468697320757365720000000000000000000000000000000000000000006020830152604082019050919050565b600060c083016000830151848203600086015261311a8282612e03565b915050602083015184820360208601526131348282612e03565b915050604083015161314960408601826131a2565b50606083015184820360608601526131618282612e03565b9150506080830151848203608086015261317b8282612e03565b91505060a083015184820360a08601526131958282612e03565b9150508091505092915050565b6131ab81613684565b82525050565b6131ba81613684565b82525050565b60006131cc8284612cf3565b60148201915081905092915050565b60006131e78284612e75565b915081905092915050565b60006131fe8284612ea6565b915081905092915050565b600060608201905061321e6000830186612ce4565b81810360208301526132308185612e3c565b905061323f60408301846131b1565b949350505050565b600060208201905081810360008301526132618184612d0a565b905092915050565b600060208201905081810360008301526132838184612d7f565b905092915050565b60006020820190506132a06000830184612df4565b92915050565b600060208201905081810360008301526132c08184612e3c565b905092915050565b600060408201905081810360008301526132e28185612e3c565b905081810360208301526132f68184612e3c565b90509392505050565b600060808201905081810360008301526133198187612e3c565b9050818103602083015261332d8186612e3c565b905061333c6040830185612ce4565b818103606083015261334e8184612e3c565b905095945050505050565b600060608201905081810360008301526133738186612e3c565b905081810360208301526133878185612e3c565b905061339660408301846131b1565b949350505050565b600060c08201905081810360008301526133b88189612e3c565b905081810360208301526133cc8188612e3c565b90506133db60408301876131b1565b81810360608301526133ed8186612e3c565b905081810360808301526134018185612e3c565b905081810360a08301526134158184612e3c565b9050979650505050505050565b6000604082019050818103600083015261343c8185612e3c565b905061344b60208301846131b1565b9392505050565b6000602082019050818103600083015261346b81612f25565b9050919050565b6000602082019050818103600083015261348b81612f8b565b9050919050565b600060208201905081810360008301526134ab81612ff1565b9050919050565b600060208201905081810360008301526134cb81613057565b9050919050565b600060208201905081810360008301526134eb81613097565b9050919050565b6000604051905081810181811067ffffffffffffffff82111715613519576135186137cd565b5b8060405250919050565b600067ffffffffffffffff82111561353e5761353d6137cd565b5b601f19601f8301169050602081019050919050565b6000819050602082019050919050565b6000819050602082019050919050565b60008190508160005260206000209050919050565b600081519050919050565b600081519050919050565b600081519050919050565b6000602082019050919050565b6000602082019050919050565b600082825260208201905092915050565b600082825260208201905092915050565b600082825260208201905092915050565b600082825260208201905092915050565b600081905092915050565b600061361d82613684565b915061362883613684565b92508282101561363b5761363a61376f565b5b828203905092915050565b600061365182613664565b9050919050565b60008115159050919050565b600073ffffffffffffffffffffffffffffffffffffffff82169050919050565b6000819050919050565b82818337600083830152505050565b60005b838110156136bb5780820151818401526020810190506136a0565b838111156136ca576000848401525b50505050565b600060028204905060018216806136e857607f821691505b602082108114156136fc576136fb61379e565b5b50919050565b600061370d82613684565b91507fffffffffffffffffffffffffffffffffffffffffffffffffffffffffffffffff8214156137405761373f61376f565b5b600182019050919050565b60006137568261375d565b9050919050565b60006137688261380d565b9050919050565b7f4e487b7100000000000000000000000000000000000000000000000000000000600052601160045260246000fd5b7f4e487b7100000000000000000000000000000000000000000000000000000000600052602260045260246000fd5b7f4e487b7100000000000000000000000000000000000000000000000000000000600052604160045260246000fd5b6000601f19601f8301169050919050565b60008160601b9050919050565b61382381613646565b811461382e57600080fd5b50565b61383a81613684565b811461384557600080fd5b5056fea2646970667358221220f3e2f147d5abf7f441581c80c167eb3f071b4da160448de25a3ccb068988760964736f6c63430008000033",
  "immutableReferences": {},
  "source": "// SPDX-License-Identifier: MIT\npragma solidity ^0.8.0;\n\ncontract HealthDataManagement {\n    // 用户结构体\n    struct User {\n        string username;\n        string hashedPassword;\n        address userAddress;\n        string publicKey; // 用于非对称加密\n    }\n\n    // 健康数据结构体\n    struct HealthData {\n        string dataHash; // 健康数据的哈希值\n        string dataType; // 数据类型，如体检报告、病历等\n        uint256 timestamp; // 上传时间\n        string dataOwner; // 数据所有者的用户名\n        string dataContent; // 数据文件的内容（原文）\n        string fileName; // 文件名\n    }\n\n    // 共享权限结构体\n    struct SharePermission {\n        address granteeAddress; // 被授权者的地址\n        string grantorUsername; // 授权者的用户名\n        uint256 expirationTime; // 共享权限过期时间\n    }\n\n    // 映射用户名到用户结构体\n    mapping(string => User) public users;\n    // 映射用户名到健康数据数组\n    mapping(string => HealthData[]) public userHealthData;\n    // 映射用户名到共享权限数组\n    mapping(string => SharePermission[]) public userSharePermissions;\n    // 映射健康数据哈希到共享权限数组\n    mapping(string => SharePermission[]) public healthDataSharePermissions;\n\n    // 事件，用于通知前端用户注册成功\n    event UserRegistered(\n        string indexed username,\n        string hashedPassword,\n        address indexed userAddress,\n        string publicKey\n    );\n\n    // 事件，用于通知前端健康数据上传成功\n    event HealthDataUploaded(\n        string indexed username,\n        string dataHash,\n        string dataType,\n        uint256 timestamp\n    );\n\n    // 事件，用于通知前端共享权限设置成功\n    event SharePermissionSet(\n        string indexed grantorUsername,\n        address indexed granteeAddress,\n        string dataHash,\n        uint256 expirationTime\n    );\n\n    event HealthDataDeleted(string indexed username, string dataHash);\n\n    // 辅助变量用于跟踪用户数量和用户名索引映射\n    uint256 private userCount = 0;\n    mapping(uint256 => string) private userIndexToUsername;\n\n    // 用户注册函数\n    function registerUser(\n        string memory _username,\n        string memory _hashedPassword,\n        string memory _publicKey\n    ) public {\n        require(bytes(users[_username].username).length == 0, \"Username already exists\");\n        users[_username] = User({\n            username: _username,\n            hashedPassword: _hashedPassword,\n            userAddress: msg.sender,\n            publicKey: _publicKey\n        });\n\n        // 更新用户数量和用户名索引映射\n        userIndexToUsername[userCount] = _username;\n        userCount++;\n\n        emit UserRegistered(_username, _hashedPassword, msg.sender, _publicKey);\n    }\n\n    // 获取所有用户名的函数\n    function getAllUsernames() public view returns (string[] memory) {\n        string[] memory usernames = new string[](userCount); // 使用 userCount 直接获取用户数量\n        for (uint256 i = 0; i < userCount; i++) {\n            usernames[i] = userIndexToUsername[i];\n        }\n        return usernames;\n    }\n\n    // 上传健康数据的函数\n    function uploadHealthData(\n        string memory _username,\n        string memory _dataHash,\n        string memory _dataType,\n        string memory _dataContent, // 数据文件的内容（原文）\n        string memory _fileName // 文件名\n    ) public {\n        require(keccak256(abi.encodePacked(users[_username].userAddress)) == keccak256(abi.encodePacked(msg.sender)), \"Not authorized to upload data for this user\");\n        userHealthData[_username].push(HealthData({\n            dataHash: _dataHash,\n            dataType: _dataType,\n            timestamp: block.timestamp,\n            dataOwner: _username,\n            dataContent: _dataContent,\n            fileName: _fileName\n        }));\n\n        emit HealthDataUploaded(_username, _dataHash, _dataType, block.timestamp);\n    }\n\n    // 查看用户的健康数据（修改后，可查看共享数据）\n    function viewHealthData(string memory _username) public view returns (HealthData[] memory) {\n        address viewerAddress = msg.sender;\n        HealthData[] storage healthDataList = userHealthData[_username];\n\n        uint256 accessibleDataCount = 0;\n        for (uint256 i = 0; i < healthDataList.length; i++) {\n            if (keccak256(abi.encodePacked(_username)) == keccak256(abi.encodePacked(users[_username].username)) || hasPermissionViewTo(viewerAddress, healthDataList[i].dataHash)) {\n                accessibleDataCount++;\n            }\n        }\n\n        HealthData[] memory result = new HealthData[](accessibleDataCount);\n        uint256 resultIndex = 0;\n\n        for (uint256 i = 0; i < healthDataList.length; i++) {\n            if (keccak256(abi.encodePacked(_username)) == keccak256(abi.encodePacked(users[_username].username)) || hasPermissionViewTo(viewerAddress, healthDataList[i].dataHash)) {\n                result[resultIndex] = healthDataList[i];\n                resultIndex++;\n            }\n        }\n\n        return result;\n    }\n\n    // 新增：单独获取健康数据的内容\n    function getHealthDataContent(string memory _dataHash) public view returns (string memory) {\n        for (uint256 i = 0; i < userCount; i++) {\n            string memory username = userIndexToUsername[i];\n            for (uint256 j = 0; j < userHealthData[username].length; j++) {\n                if (keccak256(abi.encodePacked(userHealthData[username][j].dataHash)) == keccak256(abi.encodePacked(_dataHash))) {\n                    return userHealthData[username][j].dataContent;\n                }\n            }\n        }\n        return \"\";\n    }\n\n    // 新增：获取文件名的函数\n    function getFileName(string memory _dataHash) public view returns (string memory) {\n        // 遍历所有用户的数据，找到匹配的数据哈希\n        for (uint256 i = 0; i < userCount; i++) {\n            string memory username = userIndexToUsername[i];\n            for (uint256 j = 0; j < userHealthData[username].length; j++) {\n                if (keccak256(abi.encodePacked(userHealthData[username][j].dataHash)) == keccak256(abi.encodePacked(_dataHash))) {\n                    return userHealthData[username][j].fileName;\n                }\n            }\n        }\n        return \"\"; // 如果未找到匹配的数据哈希，则返回空字符串\n    }\n\n    // 设置健康数据共享权限\n    function setSharePermission(\n        string memory _grantorUsername,\n        address _granteeAddress,\n        string memory _dataHash,\n        uint256 _expirationTime\n    ) public {\n        require(keccak256(abi.encodePacked(users[_grantorUsername].userAddress)) == keccak256(abi.encodePacked(msg.sender)), \"Not authorized to set permissions for this user\");\n        require(_expirationTime > block.timestamp, \"Expiration time must be in the future\");\n\n        // Add to grantor's share permissions\n        userSharePermissions[_grantorUsername].push(SharePermission({\n            granteeAddress: _granteeAddress,\n            grantorUsername: _grantorUsername,\n            expirationTime: _expirationTime\n        }));\n\n        // Add to health data's share permissions\n        healthDataSharePermissions[_dataHash].push(SharePermission({\n            granteeAddress: _granteeAddress,\n            grantorUsername: _grantorUsername,\n            expirationTime: _expirationTime\n        }));\n\n        emit SharePermissionSet(_grantorUsername, _granteeAddress, _dataHash, _expirationTime);\n    }\n\n    // 检查用户是否有权限查看特定的健康数据\n    function hasPermissionViewTo(\n        address _viewerAddress,\n        string memory _dataHash\n    ) public view returns (bool) {\n        SharePermission[] memory permissions = healthDataSharePermissions[_dataHash];\n        for (uint256 i = 0; i < permissions.length; i++) {\n            if (permissions[i].granteeAddress == _viewerAddress && permissions[i].expirationTime >= block.timestamp) {\n                return true;\n            }\n        }\n        return false;\n    }\n\n    // 删除健康数据\n    function deleteHealthData(string memory _username, string memory _dataHash) public {\n        require(keccak256(abi.encodePacked(users[_username].userAddress)) == keccak256(abi.encodePacked(msg.sender)), \"Not authorized to delete data for this user\");\n\n        HealthData[] storage healthDataList = userHealthData[_username];\n        for (uint256 i = 0; i < healthDataList.length; i++) {\n            if (keccak256(abi.encodePacked(healthDataList[i].dataHash)) == keccak256(abi.encodePacked(_dataHash))) {\n                // 删除指定索引处的健康数据\n                healthDataList[i] = healthDataList[healthDataList.length - 1];\n                healthDataList.pop();\n\n                // 同时删除共享权限\n                delete healthDataSharePermissions[_dataHash];\n\n                emit HealthDataDeleted(_username, _dataHash);\n                return;\n            }\n        }\n    }\n}",
  "sourcePath": "/home/deft/桌面/code/Final_System/contracts/HealthDataManagement.sol",
  "compiler": {
    "name": "solc",
    "version": "0.8.0+commit.c7dfd78e.Emscripten.clang"
  },
  "schemaVersion": "3.4.16",
  "updatedAt": "2025-05-27T03:24:39.862Z",
  "networkType": "ethereum",
  "devdoc": {
    "kind": "dev",
    "methods": {},
    "version": 1
  },
  "userdoc": {
    "kind": "user",
    "methods": {},
    "version": 1
  }
}